:020000040C00EE
:100000000008001001020008B1020008B102000857
:10001000B1020008B1020008B102000800000000AF
:10002000000000000000000000000000B102000815
:10003000B102000800000000B1020008A13700086A
:10004000B1020008B1020008B1020008B1020008C4
:10005000B1020008B1020008B1020008B1020008B4
:10006000B1020008000000000000000000000000D5
:10007000B102000800000000B1020008B10200084F
:1000800075370008B1020008B1020008B10200088B
:10009000B1020008B1020008B1020008B102000874
:1000A000B1020008B1020008B1020008B102000864
:1000B000B1020008B1020008B1020008B102000854
:1000C000B1020008B1020008B1020008B102000844
:1000D000B1020008B1020008B1020008B102000834
:1000E000B1020008B1020008B1020008B102000824
:1000F000B1020008B1020008B1020008B102000814
:10010000B1020008B1020008B1020008B102000803
:10011000B1020008B1020008B1020008B1020008F3
:10012000B1020008B1020008B1020008B1020008E3
:10013000B1020008B1020008B1020008B1020008D3
:10014000B1020008B1020008B1020008B1020008C3
:10015000B1020008B1020008B1020008B1020008B3
:10016000000000000000000000000000000000008F
:10017000B1020008B1020008B1020008B102000893
:10018000B1020008B1020008B1020008B102000883
:10019000B1020008B1020008B1020008B102000873
:1001A000B1020008B102000875300008653000088F
:1001B000B1020008B1020008B1020008B102000853
:1001C000B1020008B1020008B1020008B102000843
:1001D000B1020008B1020008B102000800000000EE
:1001E000B1020008B1020008B1020008B102000823
:1001F000B102000800000000B10200080000000089
:10020000DFF88CD023488047234C244DAC4209DAD8
:1002100021686268A368043BA2BFC858D050FAE7BF
:100220000C34F3E71E4B1F4CA34208DA19685A68D6
:100230000020043AA4BF8850FBE70833F4E71A48CB
:1002400080471A4880470000D452000C000000206C
:100250003C0100001054000C0000003000000000C1
:10026000D452000C0008001000000000D452000C12
:1002700000080010000000003C01002038020000CF
:100280000000003000000000000800100000000026
:1002900000080010B50200084802000878020008B3
:1002A0007802000890020008094300081939000884
:1002B000FEE7000098B500AF054A4FF00053144622
:1002C0000FCB84E80F0002F09DFF03F005F898BD06
:1002D000C4FF002080B584B000AF2F4BDB6803F46F
:1002E0008033002B3ED02D4BDB6803F00103002B45
:1002F00002D02B4BFB6002E002F0E4FFF860274BDA
:100300001B6803F00403002B20D0244B9B6803F0F0
:1003100070631B0E0133BB60204B9B6803F4FE43EC
:100320001B0A01337B601D4B9B6803F4FE031B0C0F
:1003300001333B60BB683A6802FB03F3FA68B2FB27
:10034000F3F37A6802FB03F3FB600DE0134B9B6849
:1003500003F07F0301333B60FA683B68B2FBF3F3C1
:10036000FB6001E00E4BFB600B4BDB68DBB2013343
:10037000FA68B2FBF3F3FB60074B1B6903F0010360
:100380000133FA68B2FBF3F3FB60064AFB681360C3
:100390001037BD4680BD00BF0046005010470050DA
:1003A00000366E01C0FF002080B483B000AF7860DB
:1003B0007B68D3F8143103F48053002B14BF01235E
:1003C0000023DBB218460C37BD465DF8047B70474E
:1003D00080B483B000AF78607B68D3F8143103F445
:1003E0000063002B14BF01230023DBB218460C3737
:1003F000BD465DF8047B704780B483B000AF786081
:100400007B689B6C18460C37BD465DF8047B7047D3
:1004100080B483B000AF786039607B68DA6C3B6889
:100420001A437B68DA640C37BD465DF8047B70477D
:1004300080B400AFBD465DF8047B704780B582B0E4
:1004400000AF0346FB71274B9B68184678210022BA
:1004500001F090F900E000BF224B9B681846FFF7BF
:10046000CBFF034603F40073002BF4D01D4B9B68B5
:1004700018464FF40071FFF7CBFF00E000BF194BA7
:100480009B681846FFF790FF0346002BF6D1154BEB
:100490009B681846002101F0C7F900E000BF114B2E
:1004A0009B681846FFF780FF0346002BF6D10D4BE3
:1004B0009A68FB791046194601F0B6F900BF094B5E
:1004C0009B681846FFF784FF034683F00103DBB205
:1004D000002BF4D1034B9B68184601F07FF90837D5
:1004E000BD4680BD5C03002080B584B000AF78605D
:1004F00039602E4B9B6818467821002201F03AF9AA
:1005000000E000BF294B9B681846FFF775FF0346C4
:1005100003F40073002BF4D0244B9B6818464FF46F
:100520000071FFF775FF00E000BF204B9B68184685
:10053000FFF73AFF0346002BF6D11C4B9B68184689
:10054000402101F071F90023FB6016E000E000BFDC
:10055000164B9B681846FFF727FF0346002BF6D182
:10056000124B99687A68FB6813441B780846194651
:1005700001F05AF9FB680133FB60FA683B689A4264
:10058000E4D300BF094B9B681846FFF721FF0346E1
:1005900083F00103DBB2002BF4D1044B9B681846B7
:1005A00001F01CF91037BD4680BD00BF5C03002080
:1005B00080B582B000AF78603960374A7B6893605D
:1005C000354A3B68D360FFF733FF334BDB68642069
:1005D0009847002000F0F8F92020FFF72FFF0020B7
:1005E000FFF72CFFB020FFF729FFC820FFF726FFF9
:1005F0000020FFF723FF1020FFF720FF4020FFF728
:100600001DFFFF2000F0CEF9A120FFF717FFA62065
:10061000FFF714FFA820FFF711FF1F20FFF70EFFC1
:10062000A420FFF70BFFD320FFF708FF0020FFF700
:1006300005FFD520FFF702FFF020FFF7FFFED920CE
:10064000FFF7FCFE2220FFF7F9FEDA20FFF7F6FEA7
:100650000220FFF7F3FEDB20FFF7F0FE2020FFF77C
:10066000EDFE8D20FFF7EAFE1420FFF7E7FE0120E4
:1006700000F0AAF9002000F011F800F031F8064B64
:1006800000221A80044B00225A80034B01225A7127
:100690000837BD4680BD00BF5C03002080B485B034
:1006A00000AF0346FB710023FB600DE0FB79002BDC
:1006B00001D1002100E0FF21084AFB6813440A46EB
:1006C0001A70FB680133FB60FB68B3F5027FEDD362
:1006D0001437BD465DF8047B704700BF3C01002025
:1006E00080B582B000AF0023FB711AE0FB79503B6C
:1006F000DBB21846FFF7A2FE0020FFF79FFE102096
:10070000FFF79CFEFA7913469B0113445B001A46DF
:10071000074B134418468221FFF7E6FEFB790133AD
:10072000FB71FB79032BE1D90837BD4680BD00BFC3
:100730003C01002080B483B000AF0346FB710B4640
:10074000BB7113467B71FB79812B02D8BB791F2BC0
:1007500000D950E02A4B1B79002B06D07B79002B67
:100760000CBF01230023DBB27B717B79012B20D1ED
:10077000FA79BB79DB08D8B201460B469B010B44E2
:100780005B001A44F97903469B0103445B000B4468
:100790001C49CB5CD8B2BB7903F00703012101FAF5
:1007A00003F3DBB201460B43DBB2D9B2154B9954CC
:1007B00021E0FA79BB79DB08D8B201460B469B01F0
:1007C0000B445B001A44F97903469B0103445B0028
:1007D0000B440C49CB5CD8B2BB7903F00703012171
:1007E00001FA03F3DBB2DB43DBB201460B40DBB2C1
:1007F000D9B2044B99540C37BD465DF8047B704761
:100800005C0300203C01002090B589B000AF044695
:10081000381D80E806001A462346FB731346BB7357
:10082000FB7B1F2B02D9FB7B7E2B01D9002371E0C0
:100830003A4B1B881A463B791344822B06DC374B14
:100840005B881A467B791344202B01DD002361E08D
:100850000023FB6150E0BA68FB7B203B797901FB08
:1008600003F31946FB690B445B0013441B887B614F
:100870000023BB6138E0BB697A6902FA03F303F431
:100880000043002B14D0254B1B88DAB2BB69DBB2C6
:100890001344D9B2214B5B88DAB2FB69DBB2134453
:1008A000DAB2BB7B084611461A46FFF743FF18E051
:1008B0001A4B1B88DAB2BB69DBB21344D9B2174BAF
:1008C0005B88DAB2FB69DBB21344DAB2BB7B002B84
:1008D0000CBF01230023DBB2084611461A46FFF77E
:1008E00029FFBB690133BB613B791A46BB699A4258
:1008F000C1D8FB690133FB617B791A46FB699A42D7
:10090000A9D8064B1A883B799BB213449AB2034B81
:100910001A80FB7B18462437BD4690BD5C0300203F
:1009200090B585B000AFF860381D80E80600FB7018
:1009300015E0FB681B78FC7818463B1D93E8060021
:100940002346FFF761FF03461A46FB681B789A426D
:1009500002D0FB681B7808E0FB680133FB60FB6892
:100960001B78002BE5D1FB681B7818461437BD4671
:1009700090BD00BF80B483B000AF03460A46FB7150
:100980001346BB71FB799AB2054B1A80BB799AB2B8
:10099000034B5A800C37BD465DF8047B704700BF9F
:1009A0005C03002080B584B000AF0346FB71812357
:1009B000FB73FB7B1846FFF741FDFB791846FFF7F9
:1009C0003DFD1037BD4680BD80B584B000AF034605
:1009D000FB71FB79002B05D0AF23FB73074B012282
:1009E0009A7104E0AE23FB73044B00229A71FB7BE7
:1009F0001846FFF723FD1037BD4680BD5C0300207D
:100A000080B485B000AFF8600B467A60FB72FB7A69
:100A10009B08DBB21846FB7A9B08DBB21A46FB68E0
:100A2000043253F82220FB7A03F00303DB0019465B
:100A3000F8238B40DB4302EA0301FB68021D43F805
:100A40002210FB685A6FFB7A5B00194603238B4028
:100A5000DB431A40FB685A67FB683A4A934203D06B
:100A6000FB68394A93420AD1FB681A6EFB7A01216E
:100A700001FA03F3DB431A40FB681A6642E07B6825
:100A80001B78DBB25BB2002B3CDA7B685A68FB7ADE
:100A90009A40FB685A60FB7ADB08DBB21846FB7AA7
:100AA000DB08DBB21A46FB68103253F82220FB7ACF
:100AB00003F007039B00194607238B40DB4302EA40
:100AC0000301FB6800F1100243F82210FB7ADB08F7
:100AD000DBB21846FB7ADB08DBB21A46FB68103241
:100AE00053F822207B681B7A1946FB7A03F0070330
:100AF0009B0001FA03F342EA0301FB6800F11002D4
:100B000043F82210FB7A9B08DBB21846FB7A9B085D
:100B1000DBB21A46FB68043253F822207B681B784C
:100B20001946FB7A03F00303DB0001FA03F342EA00
:100B30000301FB68021D43F822101437BD465DF81F
:100B4000047B7047008E0248008F024880B400AFDB
:100B5000034B1B681846BD465DF8047B704700BF19
:100B6000C0FF002080B400AF034BD3F8C430184658
:100B7000BD465DF8047B70470040005080B584B0EE
:100B800000AF7860FFF7A6FB0B4B1B680B4AA2FB7C
:100B900003239A0C7B6802FB03F37B600023FB605A
:100BA00003E000BFFB680133FB60FA687B689A4290
:100BB000F7D31037BD4680BDC0FF002083DE1B4346
:100BC00080B400AF034B5B681846BD465DF8047BFC
:100BD000704700BF7440005080B483B000AF7860AD
:100BE000034A7B68D3600C37BD465DF8047B7047D1
:100BF00074400050B0B584B002AF7860002000F0BF
:100C0000C5F800F087FA7B68DB79002B0AD000F08A
:100C1000BFFA00BF00F0AAFA034683F00103DBB27B
:100C2000002BF7D17B685B7A184600F029F900BFEA
:100C3000FFF798FF0346002BFAD17B681B7A184612
:100C400000F042FA7B681B7C184600F037F97B689D
:100C50005B7C184600F05AF97B689B7C184600F0D4
:100C600041F97B68DB7C184600F064F97B689B796E
:100C7000002B0AD000F0C4FA00BF00F0E9FA0346E6
:100C800083F00103DBB2002BF7D17B68DB78002B0C
:100C900009D17B689B7983F00103DBB2002B17D06D
:100CA00000F0FAFA14E000F0E7FA7B6899887B68B4
:100CB000DA787B685B781D467B681B781C467B680E
:100CC0009B780093084611462A46234600F0F4FA22
:100CD0007B68DB68B3F5803F03D14FF4803000F0D0
:100CE00055F8FFF7F7FA0837BD46B0BD80B485B0B8
:100CF00000AF78607B681B0FFB607B6823F070435C
:100D0000BB60FA6813465B0013449B001A46044B11
:100D10001344BA681A601437BD465DF8047B704707
:100D20001444005080B485B000AF78607B681B0F1E
:100D3000FB607B6823F07043BB60FA6813465B007E
:100D400013449B001A46084B13441A68BB681340AF
:100D5000002B14BF01230023DBB218461437BD4615
:100D60005DF8047B704700BF0C44005080B500AFB5
:100D7000FFF7ECFE0246044B5B6903F0010322FA25
:100D800003F3184680BD00BF0046005080B483B016
:100D900000AF78600649064BDB6823F480327B683D
:100DA0001343CB600C37BD465DF8047B704700BF32
:100DB0000046005080B483B000AF78600649064B0F
:100DC0009B6923F480327B6813438B610C37BD46EB
:100DD0005DF8047B704700BF0046005080B483B0CC
:100DE00000AF78600649064B5B6A23F440327B68AB
:100DF00013434B620C37BD465DF8047B704700BF60
:100E00000046005080B483B000AF0346FB80FB88EF
:100E1000002B08D10A4A0A4BDB6823F4807323F0C5
:100E20000103D36007E0064A054BDB6843F4807397
:100E300043F00103D3600C37BD465DF8047B704777
:100E40001047005080B483B000AF0346FB7100BF71
:100E5000094BD3F8C43003F00803002BF8D107493D
:100E6000064BDB6823F04002FB791343CB600C3761
:100E7000BD465DF8047B70470040005000430050C1
:100E800080B483B000AF0346FB7100BF094BD3F8B9
:100E9000C43003F00803002BF8D10749064BDB6888
:100EA00023F08002FB791343CB600C37BD465DF81D
:100EB000047B7047004000500043005080B483B072
:100EC00000AF78600649064BDB6823F0FF027B68C1
:100ED000013B1343CB600C37BD465DF8047B704784
:100EE0000046005080B483B000AF78600649064BDE
:100EF0001B6A23F001027B68013B13430B620C3732
:100F0000BD465DF8047B70470046005080B483B056
:100F100000AF78600649064B1B6923F001027B682D
:100F2000013B13430B610C37BD465DF8047B7047F2
:100F30000046005080B483B000AF78600649064B8D
:100F40005B6923F001027B68013B13434B610C3763
:100F5000BD465DF8047B70470046005080B483B006
:100F600000AF78600649064B9B6923F007027B6857
:100F7000013B13438B610C37BD465DF8047B704722
:100F80000046005080B483B000AF78600649064B3D
:100F9000DB6923F03F027B68013B1343CB610C37D5
:100FA000BD465DF8047B70470046005080B483B0B6
:100FB00000AF78600649064B5B6A23F0FF027B684E
:100FC000013B13434B620C37BD465DF8047B704711
:100FD0000046005080B483B000AF0346FB71044A62
:100FE000FB7953600C37BD465DF8047B704700BF4A
:100FF0000046005080B400AF054A054B5B6923F4FE
:10100000803323F002035361BD465DF8047B7047D3
:101010001047005080B483B000AF78603960284A30
:10102000274B5B6943F00103536100BF244B1B69ED
:1010300003F00103002BF9D0214A214B5B6943F0F7
:10104000100353611E493B68013B1A027B68013B58
:101050001B0613434B611A4A194B5B6943F040036B
:101060005361174A164B5B6923F010035361144A0E
:10107000134B5B6943F48023536100BF104B1B6922
:1010800003F00403002BF9D00D4A0D4B5B6923F0EC
:101090000103536100BF0A4B1B6903F00103002BDE
:1010A000F9D1074A064B5B6923F040035361054BB6
:1010B0000822DA600C37BD465DF8047B704700BF3C
:1010C000104700506041005080B582B000AF034629
:1010D000FB710F4A0E4B5B6843F480135360FB793E
:1010E000012B0ED10A4A0A4B5B6823F4801353602C
:1010F0006420FFF743FD064A054B5B6843F4002379
:1011000053606420FFF73AFD0837BD4680BD00BF3D
:101110001047005080B400AF124B1B6803F001036E
:10112000002B09D10F4B01225A6000BF0D4B1B68E9
:1011300003F00103002BF9D00B4B1B6803F4007381
:10114000002B0AD0084B4FF400729A6000BF064B88
:101150001B6803F40073002BF9D1BD465DF8047BD6
:10116000704700BF004200500044005080B400AF00
:10117000064B1B6803F00803002B0CBF0123002360
:10118000DBB21846BD465DF8047B70470043005053
:1011900080B500AF4FF40000FFF71EFD174A174B54
:1011A000DB6923F03003D36100BFFFF709FD03467D
:1011B00003F40003002BF8D04FF40030FFF70CFDD0
:1011C0000E4B08225A6000BFFFF7FAFC034603F4F7
:1011D0000033002BF8D04FF40020FFF7FDFC074A46
:1011E000064BDB6843F00803D36000BFFFF7E8FC61
:1011F000034603F40023002BF8D080BD00430050C9
:10120000B0B500AF0F4A0F4B5B6823F480335360D7
:101210000D4D0D4B5B6823F4702424F0300402F074
:1012200051F80246094BA3FB02231B0D013B1B0493
:1012300023436B60034A034B5B6823F40033536022
:10124000B0BD00BF10470050004700506BCA5F6B35
:1012500080B400AF074B1B6803F46073B3F5607F85
:101260000CBF01230023DBB21846BD465DF8047BAA
:10127000704700BF1047005080B400AF054A054BCF
:101280005B6823F4803323F002035360BD465DF8AE
:10129000047B70471047005080B400AF054A054BEF
:1012A0005B6843F4803343F002035360BD465DF84E
:1012B000047B70471047005080B586B000AFBA601D
:1012C0007B600346FB810B467B73FB891846FFF767
:1012D00099FD7B7B012B40F08B80FB89002B09D192
:1012E00001F0F0FF0246544BA3FB02239B0C9B052D
:1012F0007B6102E04FF0C0637B617B697A6802FB2F
:1013000003F2BB68B2FBF3F37B617B694B4AA2FB40
:1013100003231B099B0D3B61494A494B5B6843F022
:101320000103536000BF464B1B6803F00103002B11
:10133000F9D0434A424B5B6843F010035360404985
:101340003F4B9A683F4B13407A68013A12021A43A6
:101350003B69013B1B041A43BB68013B1B0613435B
:101360008B60374A364B5B6843F040035360344A26
:10137000334B5B6823F010035360314A304B5B689A
:1013800043F48023536000BF2D4B1B6803F004031C
:10139000002BF9D02A4A2A4B5B6823F001035360E3
:1013A00000BF274B1B6803F00103002BF9D17B69B9
:1013B000254AA2FB03235B099B0D3B613A6A3B690B
:1013C0009A4202D2386900F045F87B695B081F4AEF
:1013D000A2FB03235B099B0D3B613A6A3B699A427E
:1013E00002D2386900F036F8386A00F033F81CE0B1
:1013F0001349134B9B6823F07F023B6A013B134365
:101400008B6000BF0E4B1B6803F01003002BF9D05C
:101410000B4A0B4B5B6843F00103536000BF084B62
:101420001B6803F00103002BF9D0094B0522DA6099
:101430001837BD4680BD00BF83DE1B43ABAAAAAAF6
:1014400010470050FF8080F089888888B7600BB60D
:101450006041005080B582B000AF78600B490B4B03
:101460009B6823F4FE027B68013B1B0413438B60E3
:1014700000BF064B1B6803F02003002BF9D032207D
:10148000FFF77CFB0837BD4680BD00BF104700500A
:1014900080B483B000AF78607B684FF48072DA600C
:1014A0000C37BD465DF8047B704700BF80B582B045
:1014B00000AF78607B68104A934203D10420FFF7A5
:1014C00015FC16E07B680D4A934203D10820FFF714
:1014D0000DFC0EE07B680A4A934203D11020FFF70F
:1014E00005FC06E07B68074A934202D10648FFF7F5
:1014F000FDFB0837BD4680BD00C000400000014034
:1015000000400140004000480100001080B582B05A
:1015100000AF78601020FFF75DFD7868FFF7C6FF29
:101520000837BD4680BD00BF80B584B000AF78608D
:101530000B46FB707868FFF7E9FF7868FFF7A8FFB4
:101540007B681B68FB60FB6823F44043FB60FB780F
:101550009B03FA681343FB607B68FA681A601037D4
:10156000BD4680BD80B483B000AF78600B46FB7091
:101570001346BB70FB789B08DBB21846FB789B08D0
:10158000DBB21A467B68043253F82220FB7803F062
:101590000303DB001946F8238B40DB4302EA030117
:1015A0007B68021D43F82210FB789B08DBB21846CB
:1015B000FB789B08DBB21A467B68043253F8222082
:1015C000BB78F97801F00301C9008B4042EA0301BE
:1015D0007B68021D43F822100C37BD465DF8047B82
:1015E000704700BF80B483B000AF78607B689B6BAE
:1015F000DBB223F07F03DBB218460C37BD465DF843
:10160000047B704780B483B000AF786039607B683A
:10161000DA6C3B681A437B68DA640C37BD465DF8C8
:10162000047B704780B584B000AFF860B9601346A2
:10163000FB71F86800F0A2F9FB68114A5A63BB68B5
:10164000DB88F868194600F01DF8FB79002B08D0FC
:10165000BB681A68BB681B79F86811461A4600F027
:101660003BF8FB684FF4A0629A63FB684FF0FF32CF
:10167000DA64FB6800221A641037BD4680BD00BFE3
:1016800003033F0780B483B000AF78600B467B80D4
:101690007B8803F4F843B3F5F04F0ED17B68DB6B26
:1016A0001B0C1B047A88D2B21A437B885B0003F4BC
:1016B0007E431A437B68DA6308E07B68DB6B1B0CB4
:1016C0001B047A8812021A437B68DA630C37BD4622
:1016D0005DF8047B704700BF80B586B000AFF8604E
:1016E000B9601346FB71BB68204A934219D8FB6866
:1016F000DB6B23F40032FB68DA63FB79002B08D044
:10170000BB68F86819460A2200F0F6F90346FB7533
:1017100027E0F868B9680A2200F07CF90346FB75F7
:101720001FE0BB68124A934219D8FB68DB6B43F495
:101730000032FB68DA63FB79002B08D0BB68F868DD
:101740001946192200F0D8F90346FB7509E0F8683C
:10175000B968192200F05EF90346FB7501E0012328
:10176000FB75FB7D18461837BD4680BDA08601007D
:10177000801A060080B584B000AF78600B467B808D
:1017800013467B707B8843F480639BB2FB607B785D
:10179000012B03D1FB6843F00103FB607B68D3F8A6
:1017A000083103F0E063002B10D100BF7868FFF729
:1017B00019FF0346802BF9D078684FF40051FFF7EA
:1017C00021FF7B68FA68C3F8802003E07B68FA6831
:1017D000C3F880211037BD4680BD00BF80B582B000
:1017E00000AF78607B68D3F8083103F0E063002B2A
:1017F00011D100BF7868FFF7F5FE0346802BF9D0C2
:1018000078684FF40051FFF7FDFE7B684FF4C0622B
:10181000C3F8802004E07B684FF4C062C3F88021E5
:101820000837BD4680BD00BF80B582B000AF78608C
:101830000B46FB707B68D3F8083103F0E063002BA4
:1018400010D100BF7868FFF7CDFE0346802BF9D09A
:1018500078684FF40051FFF7D5FEFA787B68C3F83B
:10186000802003E0FA787B68C3F880210837BD4602
:1018700080BD00BF80B582B000AF78607B68D3F8D0
:10188000083103F0E063002B11D100BF7868FFF747
:10189000A9FE0346802BF9D078684FF40051FFF77A
:1018A000B1FE7B684FF40072C3F8802004E07B68CF
:1018B0004FF40072C3F880210837BD4680BD00BFD9
:1018C00080B582B000AF78607B68D3F8083103F050
:1018D000E063002B11D100BF7868FFF783FE034659
:1018E000802BF9D078684FF40051FFF78BFE7B68AE
:1018F0004FF44072C3F8802004E07B684FF44072DC
:10190000C3F880210837BD4680BD00BF80B485B0D4
:1019100000AF78607B68D3F80C3103F0E063002BF4
:1019200003D17B685B6DFB7303E07B68D3F81C31EC
:10193000FB73FB7B18461437BD465DF8047B70478C
:1019400080B483B000AF786039607B681A6C3B6804
:1019500003F4FE33DB431A407B681A647B68DA6B5E
:101960003968054B0B40DB431A407B68DA630C3760
:10197000BD465DF8047B70470000FC4180B582B035
:1019800000AF78607B681A4A934203D07B68194A9B
:10199000934203D1184800F0F1F916E07B68174A2A
:1019A000934203D07B68164A934203D1154800F056
:1019B000E5F90AE07B68144A934203D07B68134A36
:1019C000934202D1124800F0D9F97B680322DA6011
:1019D00000BF7B68DB6803F00103002BF9D07B6854
:1019E0001B6C23F00F027B681A640837BD4680BD6C
:1019F00000000340000203400800034000000248CA
:101A00000002024808000248004002480042024822
:101A10000840024880B58EB000AFF860B9607A60C7
:101A2000BB68632B5AD97B68002B57D0FFF79EF910
:101A300002462F4BA3FB02235B093B62BB682C4A87
:101A4000A2FB03235B09BB604FF48063FB620123AD
:101A5000BB6240F2FF337B624FF480633B6322E062
:101A60003B6A3A6B02FB03F2BB68796801FB03F344
:101A7000B2FBF3F3FB61FB699B0ABB61FB69C3F338
:101A800009037B61BB69B3F5806F09D87A697B6A0A
:101A90009A4205D27B697B62BB69BB623B6BFB628E
:101AA0003B6B013B3B633B6B002BD9D1FB6A013B9A
:101AB00043F40042FB681A61FB685A690D4B1340FE
:101AC0007A68013A92021A43BB6A013B1B041A432B
:101AD000FB685A61002387F8373002E0012387F85A
:101AE000373097F8373018463837BD4680BD00BFCD
:101AF0001F85EB51EF8000FC80B58CB000AFF86023
:101B0000B9607A60FFF732F903463B62BB687A68D6
:101B100002FB03F3FB610123FB623A6AFB699A4211
:101B20005FDD3A6AFB6992FBF3F3BB6210E0FB6A8C
:101B30000133FB62BB687A6802FB03F31A46FB6A57
:101B400003FB02F3FB613A6AFB6992FBF3F3BB62AE
:101B5000BB6A40F2FE329342E9D83A6A7B68B96ABE
:101B600001FB03F3F96A01FB03F3B2FBF3F3BB617F
:101B70003A6ABB6A0133796801FB03F3F96A01FB36
:101B800003F3B2FBF3F37B61BA687B69D31A83EA90
:101B9000E372A2EBE372B968BB69CB1A002BB8BF42
:101BA0005B429A4202DABB6A0133BB62BB6AC3F58D
:101BB0008063BB62BB6A43F48042FB681A61FB68C6
:101BC0005A690C4B13407A68013A92021A43FB6A35
:101BD000013B1B041A43FB685A61002387F8273036
:101BE00002E0012387F8273097F82730184630376E
:101BF000BD4680BDEF8000FC80B485B000AFF860CA
:101C0000B9603B601346FB71FB68D3F8083123F0E1
:101C1000E062FB68C3F80821FB68D3F80821094B90
:101C200013403A681102BA681143FA7912060A435E
:101C30001A43FB68C3F808211437BD465DF8047BDE
:101C4000704700BFC0C0FFF880B485B000AFF86037
:101C5000B9603B601346FB71FB68D3F80C3123F08D
:101C6000E062FB68C3F80C21FB68D3F80C210A4B37
:101C700013403A681102BA681143FA7912060A430E
:101C8000134343F08052FB68C3F80C211437BD4660
:101C90005DF8047B704700BFC0C0FFEF80B485B023
:101CA00000AFF8600B467A60FB72FB68D3F80C312A
:101CB00023F47C527B681B021A43FB68C3F80C2197
:101CC0001437BD465DF8047B704700BF80B485B013
:101CD00000AFF8600B467A60FB72FB689A69FB7A8A
:101CE000072101FA03F3DB431A40FB7A796801FA12
:101CF00003F31A43FB689A611437BD465DF8047B11
:101D0000704700BF80B485B000AFF8600B467A60C2
:101D1000FB72FB68D3F80821FB7A072101FA03F371
:101D2000DB431A40FB7A796801FA03F31A43FB6834
:101D3000C3F808211437BD465DF8047B704700BF27
:101D400080B485B000AFF8600B467A60FB72FB6828
:101D5000D3F80C21FB7A072101FA03F3DB431A4085
:101D6000FB7A796801FA03F31A43FB68C3F80C2184
:101D70001437BD465DF8047B704700BF80B582B064
:101D800000AF78607B68184A93420CD14FF4006032
:101D9000FEF7ACFF00BF4FF40060FEF7C3FF034641
:101DA000002BF8D11CE07B68104A93420AD11048FE
:101DB000FEF79CFF00BF0E48FEF7B4FF0346002B62
:101DC000F9D10DE07B680B4A934209D10A48FEF72E
:101DD0008DFF00BF0848FEF7A5FF0346002BF9D191
:101DE0000837BD4680BD00BF080003400800024818
:101DF00080000010084002480001001080B485B047
:101E000000AF786039603B78C3F30203DBB21A4657
:101E1000BB78C3F30403DBB21B041343FB607B6892
:101E2000FA68C3F8F021FB78C3F30013DBB21A079A
:101E3000FB78C3F38103DBB29B061A43FB78C3F341
:101E40004013DBB25B071343FB607B68D3F8F021E0
:101E5000FB68134343F000427B68C3F8F02114375A
:101E6000BD465DF8047B704780B483B000AF7860F6
:101E70007B68D3F8843043F080627B68C3F88420A9
:101E80000C37BD465DF8047B704700BF80B483B05B
:101E900000AF78607B68D3F8843023F080627B6881
:101EA000C3F884200C37BD465DF8047B704700BF43
:101EB00080B500AF0120FEF719FF80BD80B582B06C
:101EC00000AF78603960FFF7F3FF3B685A697B68C1
:101ED0001A603B685B6843F400427B68C3F880206B
:101EE0003B689A687B68C3F8A0203B68DA687B6827
:101EF000C3F8A4203B681A697B68C3F880223B685A
:101F00001A687B68C3F8B8200837BD4680BD00BF9B
:101F100080B485B000AFF860B9603B601346FB71D8
:101F2000FB79002B09D1BA6840F21F731340FA689D
:101F30003968283142F8213007E0BA68054B134070
:101F4000FA683968283142F821301437BD465DF807
:101F5000047B704700001F0780B485B000AF786035
:101F60007B68D3F8803043F000427B68C3F8802060
:101F70000023FB7317E0FB7B0F4A52F82330BB6052
:101F8000BB68D3F8803003F44033002B08D000E066
:101F900000BFBB68D3F8803003F08053002BF7D12B
:101FA000FB7B0133FB73FB7B032BE4D91437BD466A
:101FB0005DF8047B704700BF6451000880B485B0B1
:101FC00000AF78600B46FB70FB78032B03D9FB78DE
:101FD000043BFB6001E0FB78FB607B68D3F8403199
:101FE00023F00F027B68C3F840217B68D3F84021BF
:101FF000FB681A437B68C3F840211437BD465DF87F
:10200000047B704780B582B000AF786039603B6870
:10201000786859680022002300F028F83B68786847
:1020200059680122002300F021F83B68786899681C
:102030000022012300F01AF83B68786899680122B1
:10204000012300F013F83B681A697B68C3F880200D
:102050003B68DA687B68C3F8B8203B687868196821
:10206000FFF7CCFE0837BD4680BD00BF80B48DB001
:1020700000AFF860B9603B601346FB71FB79002B41
:1020800013D10823FB624FF4E0637B620023BB6241
:102090001F233B623B7AC3F30403DBB2FB617B7A11
:1020A000C3F30203DBB2FB7613E01823FB624FF0AD
:1020B000E0637B621023BB624FF4F8133B62BB7A90
:1020C000C3F30403DBB2FB61FB7AC3F30203DBB2AD
:1020D000FB76FB683A68283253F822307B617B6AD2
:1020E000DB437A6913407B61FA7EFB6A02FA03F3F1
:1020F0007A6913437B613B6ADB437A6913407B61F6
:10210000BB6AFA6902FA03F37A6913437B61FB68DD
:102110003A682832796943F822103437BD465DF8B1
:10212000047B704780B485B000AF78600B46FB70CD
:102130007B68D3F88030FB60FB6823F00303FB600F
:10214000FB78FA681343FB607B68FA68C3F8802069
:102150001437BD465DF8047B704700BF80B586B07C
:1021600000AF786039600023FB7509E0FB7D394AD8
:1021700052F823301846FFF789FEFB7D0133FB75CB
:10218000FB7D032BF2D900233B613B681B7803F0F6
:102190000303DBB2002B02D04FF400633B6100234A
:1021A000FB7521E0FB7D2B4A52F82330D3F88430B5
:1021B000FB60FB6823F44073FB603B681B78C3F350
:1021C0008103DBB21B02FA681343FB60FA683B69C8
:1021D0001343FB60FB7D1F4A52F82330FA68C3F8B3
:1021E0008420FB7D0133FB75FB7D032BDAD93B6833
:1021F0005B6843F4000343F400437A68C2F800329A
:102200003B689B6843F001027B68C3F804223B688B
:102210001B7803F00303DBB2022B07D17B68D3F8F2
:10222000043243F480327B68C3F804220023FB7538
:1022300009E0FB7D074A52F823301846FFF714FEE9
:10224000FB7D0133FB75FB7D032BF2D91837BD46AF
:1022500080BD00BF6451000880B489B000AFF86051
:10226000B9607A607B681B7ABB61FB68D3F8883001
:102270007B61BB68012202FA03F3DB437A691340F6
:102280007B61BB68BA6902FA03F37A6913437B6125
:10229000FB687A69C3F888207B685B7A5BB2002BA5
:1022A00029DB0023FB61BB68012B0AD10823FB61FA
:1022B000FB68D3F8B03023F4F852FB68C3F8B020C1
:1022C0000CE0BB68002B09D10023FB61FB68D3F84D
:1022D000B03023F01F02FB68C3F8B020FB68D3F8CE
:1022E000B0307A68527A51B2FA6901FA02F21A43AE
:1022F000FB68C3F8B020FB68D3F8C8207B685B6834
:102300001A43FB68C3F8C8207B681968FB68BA6881
:10231000803243F822102437BD465DF8047B7047B5
:1023200080B584B000AF7860144B1B68002B02D1DD
:10233000124B134A1A60114B1B68FB607B68033316
:1023400023F003037B600D4B1A687B6813440D4A2E
:10235000934207D2094B1A687B681344074A1360FB
:10236000FB6806E001F0CAFF02460C2313604FF041
:10237000FF3318461037BD4680BD00BF4403002020
:1023800078030020C0FF002080B400AFBD465DF898
:10239000047B704780B483B000AF0346FB7197F9AC
:1023A0000730002B0CDB094997F907305B09FA79F4
:1023B00002F01F02012000FA02F2603341F82320EC
:1023C0000C37BD465DF8047B704700BF00E100E0BC
:1023D00080B483B000AF786039607B681A6C3B686A
:1023E000DB431A407B681A640C37BD465DF8047BFA
:1023F000704700BF80B483B000AF78607B689B6B90
:10240000DBB223F07F03DBB218460C37BD465DF824
:10241000047B704780B483B000AF786039607B681C
:10242000D3F808213B681A437B68C3F808210C37AE
:10243000BD465DF8047B704780B483B000AF786020
:1024400039607B68D3F808213B68DB431A407B681E
:10245000C3F808210C37BD465DF8047B704700BF08
:1024600080B483B000AF78607B68D3F8143103F494
:102470008053002B14BF01230023DBB218460C3716
:10248000BD465DF8047B704780B483B000AF7860D0
:102490007B68D3F8143103F40063002B14BF0123CD
:1024A0000023DBB218460C37BD465DF8047B70474D
:1024B00080B483B000AF786039607B68D3F80C21BA
:1024C0003B68DB431A407B68C3F80C210C37BD46E0
:1024D0005DF8047B704700BF80B483B000AF7860C4
:1024E0007B68D3F8143103F00803002B14BF0123D9
:1024F0000023DBB218460C37BD465DF8047B7047FD
:1025000080B483B000AF78607B689B6C18460C3752
:10251000BD465DF8047B704780B483B000AF78603F
:1025200039607B68DA6C3B681A437B68DA640C3785
:10253000BD465DF8047B704780B584B000AFF8609D
:10254000B9607A60FB681A68BB68DBB2104619464E
:102550007A68FFF7A3FB1037BD4680BD80B582B017
:1025600000AF78607B681B681846FFF779FF034669
:1025700018460837BD4680BD80B582B000AF786090
:102580007B681B681846FFF7A7FF03461846083705
:10259000BD4680BD80B582B000AF78607B681B68A7
:1025A0001846FFF7B3F9034618460837BD4680BD05
:1025B00080B582B000AF78600B46FB707B681A680C
:1025C000FB7810461946FFF72FF90837BD4680BD46
:1025D00080B582B000AF786039607B681B681846B0
:1025E0003968FFF7ADF90837BD4680BD80B582B0C8
:1025F00000AF78607B681B681846FFF73BF9083727
:10260000BD4680BD80B582B000AF78607B681B6836
:102610001846FFF755F90837BD4680BD80B582B032
:1026200000AF78607B681B6818461021FFF774FFC5
:102630007B681B681846FFF7D1F80837BD4680BD98
:1026400080B485B000AF786039607A683B689A42A0
:1026500002D27B68FB6001E03B68FB60FB681846C8
:102660001437BD465DF8047B704700BF80B584B069
:1026700000AF78607B68002B06D07B685B685B6886
:1026800098470023FB7301E00123FB73FB7B184693
:102690001037BD4680BD00BF80B584B000AF786004
:1026A00039607B681B681846FFF72AFFF860FA68F4
:1026B0003B68134018461037BD4680BD80B582B0D8
:1026C00000AF786039607B681B6818463968FFF78F
:1026D00023FF0837BD4680BD80B584B000AF786069
:1026E0007B689B68BB600023FB7378684FF4B17113
:1026F000FFF7D2FF0346002B11D07B681B681846FA
:102700004FF08041FFF798FE7B681B6818464FF436
:102710000051FFF75DFE786800F096FA05E1BB68AE
:102720009B69002B40F082807B685B6893F82630C1
:10273000002B5AD0BB68DA68BB689B689A422ED2DD
:1027400078684FF08041FFF743FF7B681B681846AD
:102750004FF08041FFF75EFE17E0BB68DA68BB68A8
:102760009B689A420FD2BB681A68BB68DB68134447
:102770001B7878681946FFF71BFFBB68DB685A1C9B
:10278000BB68DA6001E000BFCFE07868FFF7E6FEE3
:10279000034683F00103DBB2002BDED1C5E07B688A
:1027A0001B6818464FF08041FFF746FE7B685B6868
:1027B00093F828305BB21846FFF7ECFD00BF7B684A
:1027C0001B681846FFF760FE034683F00103DBB287
:1027D000002BF4D1BB6893F82830DBB2002B00F05B
:1027E000A480786800F0A4F89FE0BB68DA68BB6852
:1027F0009B689A420FD2BB681A68BB68DB681344B7
:102800001B7878681946FFF7D3FEBB68DB685A1C53
:10281000BB68DA6089E0BB6893F82830DBB2002B34
:1028200000F08380786800F083F87EE07B685B6866
:1028300093F82630002B54D07B685B6893F82730E0
:10284000002B15D07B685B6893F826301A4601236D
:1028500003FA02F27B685B6893F82730194601237C
:102860008B4010461946FFF7EBFE0346FB7301E071
:102870000223FB737B681B6818464FF08041FFF70B
:10288000DBFD23E0BB68DA68BB689B689A421CD218
:10289000BB68DB685A1CBB689B689A4207D1BB685F
:1028A0001B6A012B03D17868FFF7ACFE02E0786861
:1028B000FFF79CFEBB68DB685A1CBB68DA60BB682C
:1028C000DA68FB7B9A4201D30AE009E07868FFF7F7
:1028D00045FE034683F00103DBB2002BD2D117E0A3
:1028E00016E0BB68DB685A1CBB689B689A4207D13C
:1028F000BB681B6A012B03D17868FFF783FE02E0F7
:102900007868FFF773FEBB68DB685A1CBB68DA6047
:102910007B689B68DA687B689B689B689A4204D1F5
:1029200078684FF08041FFF753FE1037BD4680BDF9
:1029300080B584B000AF78607B689B68FB60786886
:102940004FF08041FFF744FEFB68DB69012B06D1A5
:10295000FB68002283F828207868FFF75FFE00BF3D
:102960007B681B681846FFF745FD0346802BF7D0B0
:10297000FB68002283F826207B685B681B69002BBC
:1029800003D07B685B681B6998471037BD4680BDE4
:1029900090B585B000AF78607B689B68BB60002312
:1029A000FB73BB6893F82730DBB2002B00F011817A
:1029B0007B685B6893F82730002B00F0C78020E02D
:1029C000BB685A68BB685B69D4187868FFF7E2FD9A
:1029D00003462370BB685B695A1CBB685A61BB68BD
:1029E0005A69BB681B699A420BD1BB68002283F805
:1029F00027207B681B6818464FF0C041FFF758FD41
:102A000008E07868FFF7B8FD034683F00103DBB206
:102A1000002BD5D1BB685A69BB681B699A4277D233
:102A2000BB681A69BB685B69D31A7868194600F0FD
:102A30004FF97B685B6893F82630002B15D07B68D4
:102A40005B6893F826301A46012303FA02F27B688A
:102A50005B6893F82730194601238B4010461946CE
:102A6000FFF7EEFD0346BB7301E00223BB737B68F7
:102A70005B6893F82630002B33D027E0BB68DA6818
:102A8000BB689B689A4220D2BB68DB685A1CBB6853
:102A90009B689A4207D1BB681B6A012B03D17868F7
:102AA000FFF7B0FD02E07868FFF7A0FDBB68DB68C8
:102AB0005A1CBB68DA60FB7B0133FB73FA7BBB7B80
:102AC0009A4203D30023FB730AE009E07868FFF71A
:102AD00045FD034683F00103DBB2002BCED117E0A6
:102AE00016E0BB68DB685A1CBB689B689A4207D13A
:102AF000BB681B6A012B03D17868FFF783FD02E0F6
:102B00007868FFF773FDBB68DB685A1CBB68DA6046
:102B1000BB685A69BB681B699A425AD17B681B68BB
:102B200018464FF0C041FFF7C3FC7B681B6818468E
:102B30004FF44041FFF74CFCBB6893F82830DBB200
:102B4000002B46D0786800F047F842E0BB685A682E
:102B5000BB685B69D4187868FFF71CFD03462370D7
:102B6000BB685B695A1CBB685A61BB685A69BB6821
:102B70001B699A421DD2BB68DA68BB689B689A429F
:102B800027D2BB68DA68BB689B68013B9A4207D1D1
:102B9000BB681B6A012B03D17868FFF733FD02E0A5
:102BA0007868FFF723FDBB68DB685A1CBB68DA60F6
:102BB0000FE07B681B6818464FF44041FFF708FCA4
:102BC000BB6893F82830DBB2002B02D0786800F0A5
:102BD00003F81437BD4690BD80B584B000AF78606F
:102BE0007B689B68FB60FB68DB69012B0FD100BF32
:102BF0007B681B681846FFF7FDFB0346802BF7D068
:102C0000FB68002283F828207868FFF707FD00BFE3
:102C10007B681B681846FFF7EDFB0346802BF7D057
:102C2000FB68002283F82720FB68002283F8262017
:102C30007B685B685B69002B03D07B685B685B69C2
:102C400098471037BD4680BD80B584B000AF78602E
:102C50007B681B681846FFF753FCF8607B685B686D
:102C60009B69002B0CD0FB6803F02003002B07D0DE
:102C700078682021FFF722FD7B685B689B69984795
:102C80007B685B68DB69002B0CD0FB6803F04003BA
:102C9000002B07D078684021FFF710FD7B685B6848
:102CA000DB6998477B685B681B6A002B0DD0FB686B
:102CB00003F48173002B08D078684FF48071FFF71C
:102CC000FDFC7B685B681B6A98471037BD4680BD7A
:102CD00080B586B000AF786039607B685B6893F838
:102CE00027301A4601239340BB757B685B6893F8D5
:102CF0002630002B08D07B685B6893F826301A4694
:102D000001239340FB7501E00123FB75FA7DBB7D38
:102D100010461946FFF794FC386138683969FFF7A7
:102D20008FFC0346FB737B685B6893F827301A4679
:102D3000FB7B013B786811461A46FFF7FDFB18370D
:102D4000BD4680BD80B400AF044BDB6803F4E06394
:102D50001B0A1846BD465DF8047B704700ED00E095
:102D600080B483B000AF0346FB7197F90730002BA6
:102D70000BDB084997F907305B09FA7902F01F026B
:102D8000012000FA02F241F823200C37BD465DF81D
:102D9000047B704700E100E080B483B000AF0346DD
:102DA0003960FB7197F90730002B0ADB0D4997F961
:102DB00007303A68D2B29200D2B20B4483F80023B3
:102DC0000AE00949FB7903F00F03043B3A68D2B2E9
:102DD0009200D2B20B441A760C37BD465DF8047BE4
:102DE000704700BF00E100E000ED00E080B489B072
:102DF00000AFF860B9607A60FB6803F00703FB611D
:102E0000FB69C3F10703062B28BF0623BB61FB69DF
:102E10000633062B02D9FB69013B00E000237B61EE
:102E2000BB69012202FA03F35A1EBB681A407B6990
:102E30009A407B69012101FA03F3591E7B680B401C
:102E4000134318462437BD465DF8047B704700BF26
:102E500080B483B000AF78600B46FB701346BB7044
:102E6000F878FB787A6806339B0013445B6823F09C
:102E70000702BB781A437968831D9B000B445A6094
:102E80000C37BD465DF8047B704700BF80B483B04B
:102E900000AF786039607B68D3F808213B681A433B
:102EA0007B68C3F808210C37BD465DF8047B70478A
:102EB00080B483B000AF786039607B68D3F80C21B0
:102EC0003B681A437B68C3F80C210C37BD465DF89C
:102ED000047B704780B483B000AF78600B46FB7012
:102EE0007B681B6C23F00F02FB781A437B681A6423
:102EF0000C37BD465DF8047B704700BF80B582B0DB
:102F000000AF78603960786839680122FEF78AFB83
:102F10000837BD4680BD00BF80B582B000AF786085
:102F200078680421FFF7D6FF0837BD4680BD00BF93
:102F300080B500AF054805210022FEF713FB0348CA
:102F40000B210022FEF70EFB80BD00BF008002486F
:102F500080B500AFD023064805211A46FEF702FBD4
:102F6000D02303480B211A46FEF7FCFA80BD00BFB0
:102F70000080024880B582B000AF00237B604FF034
:102F8000C0433B6032483349FFF7B8FF3048002167
:102F90000122FFF75DFF2E4801210022FFF758FFB5
:102FA0002B48102104220123FEF726FE2848102179
:102FB0000122FEF7A7FE26487968FFF767FF24483D
:102FC000002104220F23FEF73FFE2148102100229A
:102FD000FEF7B6FE1E4813210022FEF7B1FE1C4884
:102FE0003968FFF765FF1A4810210222FEF76EFECE
:102FF0001748FFF791FF18480521184AFDF700FD13
:1030000015480B21164AFDF7FBFCFFF79BFE034614
:1030100018463F210022FFF7E9FE03465B201946D0
:10302000FFF7BAFE5B20FFF79BFEFFF78BFE034620
:1030300018463F210022FFF7D9FE03465A201946C1
:10304000FFF7AAFE5A20FFF78BFE0837BD4680BD6A
:10305000000002488C5100080080024874510008AA
:103060008051000880B500AF0148FFF735FB80BDF7
:103070003400002080B500AF0148FFF789FC80BD17
:103080003400002080B483B000AF78607B684FF4D8
:103090008072DA600C37BD465DF8047B704700BF74
:1030A00080B582B000AF78607B685B7B83F0010302
:1030B000DBB2002B0FD07B689A687B681B7B1046C5
:1030C0001946FEF731FA7B689B681846FFF7DAFF6E
:1030D0007B6801225A73002318460837BD4680BD1D
:1030E00080B483B000AF786039607B68D3F880200B
:1030F0003B681033194601238B401A437B68C3F8A1
:1031000080200C37BD465DF8047B704780B584B0E5
:1031100000AF78607B681B7E022B49D17B685A69BF
:103120007B681B6910461946FEF7C8FE0023FB604A
:103130002FE07B68FA6853F8223019687B68FA68D8
:1031400053F822305B6808461946FEF75BFF7B6840
:10315000FA6853F822301B6818460321FEF7E2FF95
:103160007B68FA6853F822301B7A83F00103DBB2E4
:10317000002B05D07B685B691846F968FFF7B0FF44
:103180007B68FA6853F8223000225A72FB680133D8
:10319000FB60FB68032BCCD97B685B7E002B04D0E3
:1031A0007B685B691846FEF7D7FE7B6800221A76BB
:1031B0007B681B7E18461037BD4680BD80B485B045
:1031C00000AF78607B6803F00703FB600C4BDB68A3
:1031D000BB60BA684FF6FF031340BB60FB681A027E
:1031E000BB68134343F0BF6343F40033BB60044A3E
:1031F000BB68D3601437BD465DF8047B704700BFE1
:1032000000ED00E080B582B000AF0120FFF7D6FFEF
:1032100072B6214B214A9A60BFF34F8F62B61E4AA5
:103220001D4BD3F8883043F47003C2F888301C4B30
:1032300003F5805314331B687B607B6823F00F0316
:103240007B607B6843F003037B60154B03F5805381
:1032500014337A681A60104A0F4B5B6923F010032D
:1032600053610D4A0C4B5B6923F0080353610A4A12
:10327000094B5B6A23F480335362074A064B5B6A4F
:1032800023F400335362044A034B5B6A23F4802324
:1032900053620837BD4680BD00ED00E00000000825
:1032A0000010005880B485B000AF78600023FB7335
:1032B0007B6801221A70FB7B18461437BD465DF807
:1032C000047B704780B400AF024B1846BD465DF8E2
:1032D000047B7047001BB700B0B586B000AF134B3E
:1032E0003C1D1D460FCD0FC42B6823603B1D1846A7
:1032F000FDF780FC0020FDF7A5FD0020FDF75AFD3D
:103300000420FDF72BFEFDF775FE01202021FDF7BF
:1033100081FE0020FDF762FD0120FDF747FE012040
:10332000FDF730FE1837BD46B0BD00BF285200087B
:1033300080B400AF044BDB6803F4E0631B0A18465B
:10334000BD465DF8047B704700ED00E080B483B0BB
:1033500000AF0346FB7197F90730002B0BDB0849E0
:1033600097F907305B09FA7902F01F02012000FA91
:1033700002F241F823200C37BD465DF8047B70470C
:1033800000E100E080B483B000AF03463960FB7118
:1033900097F90730002B0ADB0D4997F907303A6897
:1033A000D2B29200D2B20B4483F800230AE009495A
:1033B000FB7903F00F03043B3A68D2B29200D2B219
:1033C0000B441A760C37BD465DF8047B704700BF8E
:1033D00000E100E000ED00E080B489B000AFF860EB
:1033E000B9607A60FB6803F00703FB61FB69C3F116
:1033F0000703062B28BF0623BB61FB690633062B98
:1034000002D9FB69013B00E000237B61BB6901221B
:1034100002FA03F35A1EBB681A407B699A407B6923
:10342000012101FA03F3591E7B680B401343184630
:103430002437BD465DF8047B704700BF80B483B07D
:1034400000AF78607B68D3F8043243F400727B6885
:10345000C3F804220C37BD465DF8047B704700BFFB
:1034600080B485B000AFF860B9607A60FB68BA6874
:10347000603253F822207B68012101FA03F342EA0B
:103480000301FB68BA68603243F822101437BD4666
:103490005DF8047B704700BF80B485B000AFF86072
:1034A000B9607A607B681968FB68BA68A03243F833
:1034B00022101437BD465DF8047B704780B483B09A
:1034C00000AF786039607B683A68C03253F82230C8
:1034D0009BB218460C37BD465DF8047B704700BFB1
:1034E00090B585B000AF78607B681B7E022B40F002
:1034F00099807B68DB681846FFF708FE0346BB73BC
:103500007B68DB685A697B689B68104619680022F3
:103510000023FEF7FDFC7B68DB685A697B685B680B
:1035200010461946FEF71AFE0023FB732EE07B6857
:103530001B68FA7B53F82230BB60BB689A68BB6893
:103540005B7B1946BB681B6810461A46FEF784FE73
:10355000BB689A68BB681B689B78C3F30303DBB244
:103560001946BB685B6810461A46FFF795FF7B68F3
:10357000DB685A69BB681B7B1946BB685B7B1046DE
:103580001A46FFF76DFFFB7B0133FB73FB7B002BC0
:10359000CDD07B685B681B7A03F00803DBB2002B9D
:1035A0002CD07B681B69002B28D07B681B691B68AB
:1035B000DCB2FFF7BDFE01467B681B695A687B6879
:1035C0001B699B68084611461A46FFF705FF02462D
:1035D00063B218461146FFF7D5FE7B68DB685A696F
:1035E0007B685B7E10461946FEF7E8FC7B681B692A
:1035F0001B68DBB25BB21846FFF7A8FE7B685B690D
:10360000002B02D07B685B6998477B689B7E002B10
:1036100005D07B68DB685B691846FFF70FFF7B68A6
:10362000BA7B1A767B681B7E18461437BD4690BD60
:1036300080B582B000AF78607B68DB685B69184654
:10364000FFF7FCFE0837BD4680BD00BF80B584B0E3
:1036500000AF78607B689A687B681B689B78C3F3CF
:103660000303DBB210461946FFF728FF0346FB8130
:10367000FB8918461037BD4680BD00BF80B582B0BB
:1036800000AF0023FB711148FFF70CFE0346FB71EE
:10369000FB79002B04D10E48FEF7E8FF0346FB71CF
:1036A000FB79002B04D10B48FFF71AFF0346FB718F
:1036B000FB79002B04D10848FFF7F2FC0346FB71AD
:1036C000FB7918460837BD4680BD00BF480300207F
:1036D00034000020BC0000204000002080B483B0F3
:1036E00000AF03463960FB7197F90730002B0ADB06
:1036F0000D4997F907303A68D2B29200D2B20B4422
:1037000083F800230AE00949FB7903F00F03043B27
:103710003A68D2B29200D2B20B441A760C37BD4648
:103720005DF8047B704700BF00E100E000ED00E0C1
:1037300080B582B000AF78607B68013BB3F1807FD9
:1037400001D301230FE00A4A7B68013B53604FF02D
:10375000FF303F21FFF7C2FF054B00229A60044B68
:1037600007221A60002318460837BD4680BD00BFF7
:1037700010E000E080B500AF0648FFF767FF0346A2
:103780001A46054B1A800548FFF752FF024B1B886B
:10379000184680BDA80000206C030020BC0000205B
:1037A00080B400AF044B1B680133034A1360BD466D
:1037B0005DF8047B704700BF5003002080B485B0E3
:1037C00000AF7860084B1B68FB6000E000BFFA6840
:1037D0007B681A44044B1B689A42F7D81437BD46DD
:1037E0005DF8047B704700BF5003002080B584B0B3
:1037F00000AFF860B9607A600020FCF74FFF02204C
:103800000121FDF7B7F8114BF86893E80600012392
:10381000FDF786F802200C21FDF7ACF80B4BB868D9
:1038200093E806000123FDF77BF802201821FDF73D
:10383000A1F8064B786893E806000123FDF770F8BD
:10384000FCF74EFF1037BD4680BD00BF00000020D2
:1038500080B58EB004AFF860B9607A603B60D7ED98
:10386000037AF5EEC07AF1EE10FA01D5264B00E0AE
:10387000264B7B62D7ED037AF5EEC07AF1EE10FAB3
:1038800004D5D7ED037AF1EE677A01E0D7ED037A3C
:10389000C7ED087AD7ED087AFDEEE77A17EE903A91
:1038A000FB61FB6907EE903AF8EEE77A97ED087A4C
:1038B00077EE677AC7ED067AD7ED067A9FED147A30
:1038C00067EE877A17EE900A00F03AFA02460B4646
:1038D0001046194600F0A0F802460B46104619465D
:1038E00000F094FC03467B61FB6900937B690193C4
:1038F0007B68029338680749BA687B6A00F036FD36
:103900002837BD4680BD00BF585200085C520008F1
:103910000000C8426052000880B5D0B000AFFFF789
:10392000ADFE314B1B68314AA2FB03239B091846AD
:10393000FFF7FEFE2E4B1B6818462E49FCF738FE9B
:103940002D4B1B8807EE903AF8EE677AC7ED4F7A59
:10395000D7F83C0100F0F4F902460B461046194630
:103960001FA3D3E9002300F03FFA02460B4610469E
:10397000194600F073FC0346C7F83831D7ED4E7A8C
:10398000B2EE047A67EE877AC7ED4D7AD7ED4D7ABD
:103990009FED1A7A67EE877AC7ED4C7A3B1DD7F810
:1039A00038011749174AFFF753FF07F16803D7F8A3
:1039B00034011549154AFFF74BFF07F1CC03D7F83F
:1039C00030011349134AFFF743FF391D07F168021D
:1039D00007F1CC03084611461A46FFF707FFAFE789
:1039E0006666666666664A3FC0FF0020D34D621079
:1039F00034000020BD3700086C030020000066433F
:103A0000705200087C520008805200088C52000856
:103A10009052000898520008F8B5C1F30A56A6F271
:103A2000FF34132C0B460D460DDC002C01F0004139
:103A30001ADB104B234125EA0305002245EA010366
:103A400010461946F8BD332C024603DDB4F5806FED
:103A50000DD0F8BDA6F213464FF0FF31F14020EA39
:103A6000010210462946F8BD00221046F8BD00F0BC
:103A700009F8F8BDFFFF0F0081F0004102E000BF30
:103A800083F0004330B54FEA41044FEA430594EA1E
:103A9000050F08BF90EA020F1FBF54EA000C55EA59
:103AA000020C7FEA645C7FEA655C00F0E2804FEA2A
:103AB0005454D4EB5555B8BF6D420CDD2C4480EA0C
:103AC000020281EA030382EA000083EA010180EA3C
:103AD000020281EA0303362D88BF30BD11F0004F8A
:103AE0004FEA01314FF4801C4CEA113102D04042C0
:103AF00061EB410113F0004F4FEA03334CEA1333FB
:103B000002D0524263EB430394EA050F00F0A78012
:103B1000A4F10104D5F1200E0DDB02FA0EFC22FA0D
:103B200005F2801841F1000103FA0EF2801843FA01
:103B300005F359410EE0A5F120050EF1200E012AF2
:103B400003FA0EFC28BF4CF0020C43FA05F3C01830
:103B500051EBE37101F0004507D54FF0000EDCF1A9
:103B6000000C7EEB00006EEB0101B1F5801F1BD352
:103B7000B1F5001F0CD349085FEA30004FEA3C0C56
:103B800004F101044FEA445212F5800F80F09A804C
:103B9000BCF1004F08BF5FEA500C50F1000041EB50
:103BA000045141EA050130BD5FEA4C0C404141EB54
:103BB000010111F4801FA4F10104E9D191F0000F7B
:103BC00004BF01460020B1FA81F308BF2033A3F1FE
:103BD0000B03B3F120020CDA0C3208DD02F1140CF5
:103BE000C2F10C0201FA0CF021FA02F10CE002F130
:103BF0001402D8BFC2F1200C01FA02F120FA0CFC29
:103C0000DCBF41EA0C019040E41AA2BF01EB045171
:103C1000294330BD6FEA04041F3C1CDA0C340EDC6F
:103C200004F11404C4F1200220FA04F001FA02F3B2
:103C300040EA030021FA04F345EA030130BDC4F170
:103C40000C04C4F1200220FA02F001FA04F340EA65
:103C50000300294630BD21FA04F0294630BD94F016
:103C6000000F83F4801306BF81F480110134013DFD
:103C70004EE77FEA645C18BF7FEA655C29D094EA6E
:103C8000050F08BF90EA020F05D054EA000C04BFEC
:103C90001946104630BD91EA030F1EBF00210020D7
:103CA00030BD5FEA545C05D14000494128BF41F076
:103CB000004130BD14F580043CBF01F5801130BDDA
:103CC00001F0004545F0FE4141F470014FF0000065
:103CD00030BD7FEA645C1ABF194610467FEA655C16
:103CE0001CBF0B46024650EA013406BF52EA0335B8
:103CF00091EA030F41F4002130BD00BF90F0000FA6
:103D000004BF0021704730B54FF4806404F13204E1
:103D10004FF000054FF0000150E700BF90F0000F9A
:103D200004BF0021704730B54FF4806404F13204C1
:103D300010F0004548BF40424FF000013EE700BF91
:103D400042004FEAE2014FEA31014FEA02701FBF21
:103D500012F07F4393F07F4F81F06051704792F0F3
:103D6000000F14BF93F07F4F704730B54FF460746D
:103D700001F0004521F0004120E700BF50EA0102B8
:103D800008BF704730B54FF000050AE050EA010265
:103D900008BF704730B511F0004502D5404261EBD5
:103DA00041014FF4806404F132045FEA915C3FF416
:103DB000DCAE4FF003025FEADC0C18BF03325FEAAF
:103DC000DC0C18BF033202EBDC02C2F1200300FA64
:103DD00003FC20FA02F001FA03FE40EA0E0021FA89
:103DE00002F11444C1E600BF70B54FF0FF0C4CF473
:103DF000E06C1CEA11541DBF1CEA135594EA0C0F29
:103E000095EA0C0F00F0DEF82C4481EA030621EA63
:103E10004C5123EA4C5350EA013518BF52EA03359E
:103E200041F4801143F4801338D0A0FB02CE4FF050
:103E30000005E1FB02E506F00042E0FB03E54FF080
:103E40000006E1FB03569CF0000F18BF4EF0010E78
:103E5000A4F1FF04B6F5007F64F5407404D25FEA74
:103E60004E0E6D4146EB060642EAC62141EA555127
:103E70004FEAC52040EA5E504FEACE2EB4F1FD0C69
:103E800088BFBCF5E06F1ED8BEF1004F08BF5FEAE7
:103E9000500E50F1000041EB045170BD06F0004699
:103EA00046EA010140EA020081EA0301B4EB5C0446
:103EB000C2BFD4EB0C0541EA045170BD41F480113E
:103EC0004FF0000E013C00F3AB8014F1360FDEBF63
:103ED000002001F0004170BDC4F10004203C35DA3F
:103EE0000C341BDC04F11404C4F1200500FA05F3C2
:103EF00020FA04F001FA05F240EA020001F0004263
:103F000021F0004110EBD37021FA04F642EB0601D8
:103F10005EEA430E08BF20EAD37070BDC4F10C0402
:103F2000C4F1200500FA04F320FA05F001FA04F2C6
:103F300040EA020001F0004110EBD37041F10001B2
:103F40005EEA430E08BF20EAD37070BDC4F12005BD
:103F500000FA05F24EEA020E20FA04F301FA05F225
:103F600043EA020321FA04F001F0004121FA04F2CD
:103F700020EA020000EBD3705EEA430E08BF20EA9D
:103F8000D37070BD94F0000F0FD101F000464000D7
:103F900041EB010111F4801F08BF013CF7D041EA59
:103FA000060195F0000F18BF704703F0004652005D
:103FB00043EB030313F4801F08BF013DF7D043EA2E
:103FC0000603704794EA0C0F0CEA135518BF95EAE4
:103FD0000C0F0CD050EA410618BF52EA4306D1D16B
:103FE00081EA030101F000414FF0000070BD50EA8A
:103FF000410606BF1046194652EA430619D094EA14
:104000000C0F02D150EA013613D195EA0C0F05D1FD
:1040100052EA03361CBF104619460AD181EA030151
:1040200001F0004141F0FE4141F470014FF0000009
:1040300070BD41F0FE4141F4780170BD70B54FF0A4
:10404000FF0C4CF4E06C1CEA11541DBF1CEA135524
:1040500094EA0C0F95EA0C0F00F0A7F8A4EB050406
:1040600081EA030E52EA03354FEA013100F08880FD
:104070004FEA03334FF0805545EA131343EA1263C6
:104080004FEA022245EA111545EA10654FEA00267B
:104090000EF000419D4208BF964244F1FD0404F534
:1040A000407402D25B084FEA3202B61A65EB030590
:1040B0005B084FEA32024FF480104FF4002CB6EB4D
:1040C000020E75EB030E22BFB61A754640EA0C00CD
:1040D0005B084FEA3202B6EB020E75EB030E22BF0D
:1040E000B61A754640EA5C005B084FEA3202B6EB4E
:1040F000020E75EB030E22BFB61A754640EA9C000D
:104100005B084FEA3202B6EB020E75EB030E22BFDC
:10411000B61A754640EADC0055EA060E18D04FEA9A
:10412000051545EA16754FEA06164FEAC30343EA3A
:1041300052734FEAC2025FEA1C1CC0D111F4801F07
:104140000BD141EA00014FF000004FF0004CB6E700
:1041500011F4801F04BF01430020B4F1FD0C88BF9F
:10416000BCF5E06F3FF6AFAEB5EB030C04BFB6EBAA
:10417000020C5FEA500C50F1000041EB045170BD9D
:104180000EF0004E4EEA113114EB5C04C2BFD4EBCA
:104190000C0541EA045170BD41F480114FF0000E4E
:1041A000013C90E645EA060E8DE60CEA135594EACA
:1041B0000C0F08BF95EA0C0F3FF43BAF94EA0C0FCD
:1041C0000AD150EA01347FF434AF95EA0C0F7FF442
:1041D00025AF104619462CE795EA0C0F06D152EA96
:1041E00003353FF4FDAE1046194622E750EA41067A
:1041F00018BF52EA43067FF4C5AE50EA41047FF48B
:104200000DAF52EA43057FF4EBAE12E74FEA4102ED
:1042100012F5001215D211D56FF47873B3EB625218
:1042200012D94FEAC12343F0004343EA505311F03F
:10423000004F23FA02F018BF404270474FF00000D1
:10424000704750EA013005D111F0004008BF6FF00F
:10425000004070474FF00000704700BF4FEA410236
:10426000B2F1E04324BFB3F5001CDCF1FE5C0DD9D4
:1042700001F0004C4FEAC0024CEA5070B2F1004F1E
:1042800040EB830008BF20F00100704711F0804F21
:1042900021D113F13872BCBF01F00040704741F4E6
:1042A00080114FEA5252C2F11802C2F1200C10FAEA
:1042B0000CF320FA02F018BF40F001004FEAC123CE
:1042C0004FEAD32303FA0CFC40EA0C0023FA02F372
:1042D0004FEA4303CCE77FEA625307D150EA013348
:1042E0001EBF4FF0FE4040F44000704701F0004018
:1042F00040F0FE4040F40000704700BF014B1868DA
:10430000704700BF3801002070B50E4B0E4CE41A08
:10431000A41000251E46A54204D056F82530984723
:104320000135F8E7FEF730F8084C094BE41AA41001
:1043300000251E46A54204D056F825309847013581
:10434000F8E770BD3C0100203C0100203C0100204A
:104350003C01002010B5431E0A44914204D011F8DC
:10436000014B03F8014FF8E710BD00000EB400B593
:104370009CB04FF40271ADF814106FF0004104913D
:1043800007914FF6FF711DABADF81610084953F8B1
:10439000042B029006900868019302A900F064F8CB
:1043A000029B00221A701CB05DF804EB03B070474A
:1043B000380100202DE9F0478E68B34282460C4652
:1043C0009046994640D38A8912F4906F3AD0256876
:1043D00009696F1A6569022305EB450595FBF3F53D
:1043E0007B1C4B449D4238BF1D4653050FD52946C3
:1043F00000F02AFB064698B121693A46FFF7AAFF6A
:10440000A38923F4906343F08003A38113E02A4639
:1044100000F070FB064670B95046216900F0D0FAF2
:104420000C23CAF80030A38943F04003A3814FF066
:10443000FF30BDE8F087266165613E44ED1B2660D4
:10444000A5604E46B14500D24E46324620684146F0
:1044500000F09BFAA3689B1BA36023681E442660A0
:104460000020BDE8F08700002DE9F0439DB006462E
:1044700003938B891C060D4690460CD50B6953B9E6
:10448000402100F0E1FA2860286110B90C23336064
:10449000CCE040236B610023099320238DF8293061
:1044A00030238DF82A3043461C4613F8012B1AB9E5
:1044B000B4EB08090FD002E0252AF5D1F8E7304621
:1044C000294642464B46FFF775FF013000F0A980B0
:1044D000099B4B4409932378002B00F0A280002312
:1044E0004FF0FF3204930793059206938DF85330F3
:1044F0001A9304F101084446DFF8489121784846B0
:10450000052200F033FA08F10108049B30B1C9EB31
:1045100000000122824013430493ECE7D80644BF15
:1045200020228DF85320190744BF2B228DF85320E9
:1045300022782A2A02D0079923460EE0039A111DF9
:1045400012680391002ABBBF524243F00203079254
:104550000792B8BF049301340AE01C460133227865
:10456000303A092A03D80A2000FB0121F5E7079118
:1045700023782E2B1AD163782A2B0AD1039B1A1D7C
:104580001B680392002BB8BF4FF0FF330234059332
:104590000CE0611C00220C4601312378303B092BD2
:1045A00003D80A2000FB0232F5E70592DFF8988075
:1045B00021784046032200F0D9F938B1049AC8EBBB
:1045C00000004023834013430493013421781A48A8
:1045D0008DF82810062204F1010800F0C7F988B10F
:1045E000164B33B9039B073323F0070308330393B8
:1045F00013E003AB0093304604A92A46104BAFF3F7
:10460000008007E003AB0093304604A92A460C4B18
:1046100000F092F8421C074603D0099B3B440993E3
:1046200041E7AB895B0601D4099801E04FF0FF3008
:104630001DB0BDE8F08300BFA852000800000000D4
:10464000B54300089E520008A45200082DE9F84323
:1046500091461F468A680B69DDF820809342B8BFF7
:104660001346C9F8003091F8432006460C4612B1B3
:104670000133C9F800302368990642BFD9F80030E9
:104680000233C9F80030256815F006051CD094F8EF
:1046900043302268003318BF012392061FD5E1186A
:1046A0005A1C302081F84300224494F8451082F8C7
:1046B0004310023313E03046394604F11902012356
:1046C000C047013007D00135E368D9F800209B1AB4
:1046D0009D42F0DBDBE74FF0FF30BDE8F88330466A
:1046E000394604F14302C0470130F4D02268D9F8BA
:1046F0000050E36802F00602042A08BF5D1B22692D
:10470000A3680CBF25EAE57500259342C4BF9B1A38
:10471000ED184FF00009A9450ADA3046394604F190
:104720001A020123C0470130D5D009F10109F2E78F
:104730000020BDE8F88300002DE9FF410C46174634
:10474000227E6E2A984606460A9B01F1430100F03C
:10475000A98012D8632A23D00AD8002A00F0B68094
:10476000582A40F0C58084F84520DFF8F8E151E090
:10477000642A1ED0692A1CD0BAE0732A00F0AA80ED
:1047800009D86F2A2BD0702A40F0B280226842F0FC
:104790002002226039E0752A21D0782A35D0A7E09E
:1047A0001A68111D1960136884F8423004F142053B
:1047B000A2E020681A6810F0800F03D0101D186066
:1047C000136805E04506F9D5101D1860B2F90030F0
:1047D000002B3BDA2D225B4284F8432036E0206830
:1047E0001A6810F0800F03D0101D1860136804E0E1
:1047F0004006F9D5101D18601388227EDFF864E1A9
:104800006F2A0CBF08220A221CE07822DFF858E148
:1048100084F845202268186812F0800F00F1040522
:104820001D6001D0036802E05506FBD50388D00760
:1048300044BF42F0200222601BB9226822F020020D
:1048400022601022002084F8430002E0DFF814E127
:104850000A226568A560002DA2BF206820F0040030
:10486000206003B965B10D46B3FBF2F002FB1033D3
:104870001EF8033005F8013D03460028F4D100E09E
:104880000D46082A0BD12368DA0708D52369626828
:104890009A42DEBF302305F8013C05F1FF35491B84
:1048A00021612EE025681A68606915F0800F03D039
:1048B000151D1D60136808E015F0400F02F1040596
:1048C0001D60136801D0188000E018600023236188
:1048D0000D4616E01A68111D1960156862682846B1
:1048E000002100F043F808B1401B6060636804E0F9
:1048F00004F1420584F8422001232361002384F857
:104900004330CDF800803046214603AA3B46FFF7EE
:104910009DFE013002D14FF0FF301FE03046394696
:104920002A462369C0470130F5D023689B0705D488
:10493000E068039B9842B8BF18460FE00025E36883
:10494000039A9B1A9D42F3DA3046394604F1190264
:104950000123C0470130DED00135F0E704B0BDE8E7
:10496000F08100BFAF520008C052000810B5C9B2B4
:1049700002449042034606D01C788C4200F10100AC
:10498000F7D1184610BD002010BD814210B501EBD3
:10499000020301D3421E0BE09842FBD28118D21AC7
:1049A000D34204D013F8014D01F8014DF8E710BDD2
:1049B000994204D011F8014B02F8014FF8E710BDFD
:1049C00030B500293DD051F8042C0B1F1D49002A99
:1049D000B8BF9B180A680C4612B95A600B6030BD0C
:1049E00093420DD219685818904201BF5A58521874
:1049F0001A6042685A60236030BD994203D80A4663
:104A000051680029F9D1146815199D420AD11B6813
:104A10002344D0188842136013D1086803441360FC
:104A20004B680DE002D90C23036030BD1C681819D7
:104A3000884204BF08684968596004BF00191860BB
:104A4000536030BD5803002070B5CC1C24F0030423
:104A500008340C2C38BF0C24002C064603DA0C2337
:104A60003360002070BD8C42F9D3204A1368104691
:104A70001946A1B10A68121B0ED40B2A03D90A6089
:104A80008B188C501FE08B420DBF5A684A685A60E1
:104A9000026018BF0B4616E00B464968E9E7144D63
:104AA0002B681BB9304600F04BF828603046214691
:104AB00000F046F8421C0346D1D0C51C25F0030582
:104AC00085420AD11C6003F10B001A1D20F007007B
:104AD000821A0AD05142995070BD3046E91A00F04E
:104AE0002FF80130BBD02B46ECE770BD58030020F7
:104AF00054030020F8B5074615460E4621B9114665
:104B0000BDE8F840FFF7A0BF1AB9FFF759FF2846E4
:104B1000F8BD00F025F8A8420ED238462946FFF726
:104B200093FF044650B131462A46FFF713FC38463E
:104B30003146FFF745FF01E03046F8BD2046F8BD9D
:104B400038B5064C0023054608462360FDF7E8FB10
:104B5000431C02D1236803B12B6038BD70030020D1
:104B600051F8040C0028BEBF091851F8043CC018C5
:104B70000438704700000000000000000000000042
:104B80000000000000200020002000200020000085
:104B90000020000000500050005000000000000005
:104BA000000000000050005000F8005000F80050D5
:104BB000005000000020007800A00070002800F0E5
:104BC0000020000000C000C8001000200040009835
:104BD00000180000004000A000A0004000A80090C5
:104BE000006800000030003000200040000000009D
:104BF00000000000001000200040004000400020A5
:104C000000100000004000200010001000100020E4
:104C100000400000002000A8007000F8007000A80C
:104C20000020000000000020002000F800200020EC
:104C30000000000000000000000000000030003014
:104C40000020000000000000000000F8000000004C
:104C50000000000000000000000000000000003024
:104C6000003000000000000800100020004000801C
:104C70000000000000700088009800A800C80088AC
:104C800000700000002000600020002000200020B4
:104C90000070000000700088000800700080008034
:104CA00000F8000000F8000800100030000800883C
:104CB00000700000001000300050009000F800105C
:104CC0000010000000F8008000F0000800080088D4
:104CD0000070000000380040008000F0008800886C
:104CE0000070000000F800080008001000200040DC
:104CF0000080000000700088008800700088008834
:104D00000070000000700088008800780008001023
:104D100000E0000000000000002000000020000073
:104D20000000000000000000002000000020002023
:104D3000004000000008001000200040002000108B
:104D4000000800000000000000F8000000F800006B
:104D500000000000004000200010000800100020AB
:104D600000400000007000880008003000200000B3
:104D7000002000000070008800A800B800B000808B
:104D800000780000002000500088008800F80088AB
:104D90000088000000F00088008800F0008800888B
:104DA00000F0000000700088008000800080008813
:104DB0000070000000F000880088008800880088EB
:104DC00000F0000000F80080008000F0008000800B
:104DD00000F8000000F80080008000F000800080F3
:104DE0000080000000780088008000800098008823
:104DF0000078000000880088008800F8008800889B
:104E0000008800000070002000200020002000200A
:104E1000007000000038001000100010001000901A
:104E2000006000000088009000A000C000A000907A
:104E300000880000008000800080008000800080EA
:104E400000F80000008800D800A800A800A800888A
:104E5000008800000088008800C800A8009800882A
:104E600000880000007000880088008800880088A2
:104E70000070000000F00088008800F000800080D2
:104E800000800000007000880088008800A8009062
:104E90000068000000F00088008800F000A000908A
:104EA0000088000000700088008000700008008802
:104EB0000070000000F800A8002000200020002062
:104EC0000020000000880088008800880088008892
:104ED000007000000088008800880088008800506A
:104EE0000020000000880088008800A800A800A812
:104EF000005000000088008800500020005000880A
:104F00000088000000880088005000200020002059
:104F10000020000000F80008001000700040008031
:104F200000F80000007800400040004000400040D1
:104F30000078000000000080004000200010000801
:104F400000000000007800080008000800080008C1
:104F500000780000002000500088000000000000E1
:104F60000000000000000000000000000000000041
:104F700000F8000000600060002000100000000049
:104F800000000000000000000060001000700090B1
:104F9000007800000080008000B000C8008800C8D1
:104FA00000B0000000000000007000880080008851
:104FB0000070000000080008006800980088009851
:104FC00000680000000000000070008800F8008009
:104FD0000070000000100028002000700020002059
:104FE0000020000000000000007000980098006899
:104FF000000800000080008000B000C80088008821
:105000000088000000200000006000200020002038
:105010000070000000100000001000100010009050
:105020000060000000800080009000A000C000A090
:1050300000900000006000200020002000200020E0
:10504000007000000000000000D000A800A800A828
:1050500000A800000000000000B000C80088008820
:1050600000880000000000000070008800880088B0
:10507000007000000000000000B000C800C800B0D0
:1050800000800000000000000068009800980068A0
:10509000000800000000000000B000C80080008090
:1050A0000080000000000000007800800070000810
:1050B00000F000000020002000F800200020002860
:1050C00000100000000000000088008800880098A0
:1050D0000068000000000000008800880088005080
:1050E00000200000000000000088008800A800A840
:1050F0000050000000000000008800500020005018
:105100000088000000000000008800880078000887
:10511000008800000000000000F80010002000409F
:1051200000F80000001000200020004000200020B7
:1051300000100000002000200020000000200020BF
:10514000002000000040002000200010002000206F
:1051500000400000004000A8001000000000000017
:10516000000000000044004000480040004C0040A7
:1051700000500040D00000000100000000000000CE
:10518000D00000000100000000000000A086010027
:10519000000000008C510008752F0008512F0008F6
:1051A000312F000800000000000000000000000097
:1051B0000000000000000000000004045B5A000032
:1051C00000000000000000000000000000000000DF
:1051D00000000000000000000000000000000000CF
:1051E00000000000000000000000000000000000BF
:1051F00000000000000000000000000000000000AF
:10520000000000000000000000000000000000009E
:10521000000000000300000000000000000000008B
:105220000000000000000000500204010000010026
:105230000000000000000100010101010000000069
:10524000100000003F00000000000000050000000A
:1052500000000000080000002D0000000000000019
:10526000257320257325642E253032642025730094
:10527000566F6C746167653A0000000056000000CC
:1052800043757272656E743A0000000041000000C0
:10529000506F7765723A0000570000004300232DDD
:1052A000302B2000686C4C0065666745464700302F
:1052B000313233343536373839414243444546007C
:1052C000303132333435363738396162636465667C
:0452D00000000000DA
:1052D40006080000744B00080000000000000000F5
:1052E40000000000000000000000000000000000BA
:1052F40000000000000000000000000001000000A9
:10530400000000000000024894510008080000203A
:10531400000E2707080000000040004800000000BD
:1053240000440040C0510008010200000048004051
:10533400D451000801020000004C0040E85100086C
:105344000102000000500040FC510008010200006E
:10535400500000205C000020680000207400002041
:1053640010520008004000400201000002002F001B
:105374000000000000FF00009C0000204C030020FF
:105384000044004000000000A8000020B8000020F5
:105394004C5200083C520008800000204052000893
:1053A40000000000020601000000000000000000F0
:1053B40000000000000000000000000000000000E9
:1053C40000000000000000009C52000800000000E3
:1053D40000000000000000000000000000000000C9
:1053E40000000000000000000000000000000000B9
:1053F40000000000000000000000000000000000A9
:0C5404000000000000000000D8000020A4
:0400000508000201EC
:00000001FF
